:020000040800F2
:10000000585A002029030008914500087539000856
:1000100051430008FB0E0008C95000080000000012
:10002000000000000000000000000000690200085D
:10003000BB11000800000000C5020008D5480008F8
:100040004303000843030008430300084303000878
:100050004303000843030008430300084303000868
:100060004303000843030008BD11000843030008D0
:10007000CD100008430300084303000843030008B1
:100080004303000843030008430300084303000838
:10009000010F00084303000843030008C7110008CC
:1000A0004303000843030008430300084303000818
:1000B000D149000843030008430300084303000834
:1000C00043030008430300084303000843030008F8
:1000D000430300084303000843030008B950000825
:1000E00043030008430300084303000843030008D8
:1000F00043030008430300084303000843030008C8
:1001000043030008430300084303000843030008B7
:1001100043030008430300084303000843030008A7
:100120004303000843030008430300084303000897
:100130004303000843030008430300084303000887
:10014000110F00084303000843030008430300089D
:100150004303000843030008430300084303000867
:100160004303000843030008430300084303000857
:100170004303000843030008430300080000000095
:10018000430300084303000800F002F800F05CF8A5
:100190000AA090E8000C82448344AAF10107DA45E2
:1001A00001D100F051F8AFF2090EBAE80F0013F0D8
:1001B000010F18BFFB1A43F00103184758900000C5
:1001C000789000000A444FF0000C10F8013B13F047
:1001D000070408BF10F8014B1D1108BF10F8015BA0
:1001E000641E05D010F8016B641E01F8016BF9D193
:1001F00013F0080F1EBF10F8014BAD1C0C1B09D1EA
:100200006D1E58BF01F801CBFAD505E014F8016B5B
:1002100001F8016B6D1EF9D59142D6D370470000ED
:100220000023002400250026103A28BF78C1FBD8FF
:10023000520728BF30C148BF0B6070471FB508F098
:1002400056FB1FBD10B510BD00F09EF91146FFF71B
:10025000F5FF06F09FFD00F0BCF903B4FFF7F2FFD5
:1002600003BC00F0BFF900002C4B19680868B0E827
:10027000F04F80F30988BFF36F8F4FF0000080F3D9
:10028000118870470000000008480068006880F38B
:1002900008884FF0000080F3148862B661B6BFF39F
:1002A0004F8FBFF36F8F00DF00BF00BF08ED00E08E
:1002B000DFF80C00016841F470010160704700BF75
:1002C00088ED00E0EFF30980BFF36F8F134B1A68DE
:1002D0001EF0100F08BF20ED108A20E9F04F1060CB
:1002E00009B44FF0500080F31188BFF34F8FBFF374
:1002F0006F8F07F097FC4FF0000080F3118809BC66
:1003000019680868B0E8F04F1EF0100F08BFB0EC95
:10031000108A80F30988BFF36F8F7047780600203A
:10032000EFF30580704700000948804709480047FF
:10033000FEE7FEE7FEE7FEE7FEE7FEE7FEE7FEE795
:10034000FEE7FEE704480549054A064B70470000F2
:10035000BD4900088901000858540020585A00205F
:10036000585600205856002053EA020C00F06980CD
:100370002DE9F04B4FF00006002B1FBFB3FA83F5B9
:1003800003FA05F424FA05F65E4012BF1643B2FAEA
:1003900082F502FA05F4C5F120051EBF22FA05FC1C
:1003A00044EA0C04203556EA044C4FEA144418BFC2
:1003B000641C4FF000084FF00009904271EB030CF1
:1003C00039D3002919BFB1FA81F701FA07F6B0FA5B
:1003D00080F700FA07F6C7F120071EBF20FA07FCD6
:1003E00046EA0C062037B6FBF4FCA7EB0507103FE6
:1003F00007F01F0BCBF120060CFA0BFB2CFA06F6CC
:1004000044BFB3460026202FA4BF5E464FF0000B2A
:100410005BEA060C08BF4FF0010B19EB0B09ABFBB5
:10042000027C48EB0608C01B06FB02CC0BFB03CC8E
:1004300071EB0C01C1E70B46024641464846BDE858
:10044000F08B13B54FF000004FF00001AFF30080C8
:10045000BDE81C40704710B5203AC0F00B80B1E8F1
:100460001850203AA0E81850B1E81850A0E81850E9
:10047000BFF4F5AF5FEA027C24BFB1E81850A0E8F2
:10048000185044BF18C918C0BDE810405FEA827C0C
:1004900024BF51F8043B40F8043B08BF7047D20723
:1004A00028BF31F8023B48BF11F8012B28BF20F8C4
:1004B000023B48BF00F8012B704702F0FF0343EAFC
:1004C000032242EA024200F037B84FF0000200B5C2
:1004D000134694469646203922BFA0E80C50A0E867
:1004E0000C50B1F12001BFF4F7AF090728BFA0E815
:1004F0000C5048BF0CC05DF804EB890028BF40F8E1
:10050000042B08BF704748BF20F8022B11F0804F22
:1005100018BF00F8012B704770477047704710B53F
:1005200000F02AF8006810BD10B5044600F024F869
:10053000046010BD4FF000020429C0F0128010F0DA
:10054000030C3FF4C4AFCCF1040CBCF1020F18BF94
:1005500000F8012BA8BF20F8022BA1EB0C01FFF73C
:10056000B6BF5FEAC17C24BF00F8012B00F8012B65
:1005700048BF00F8012B704700487047F453002033
:1005800000487047F45300207546FFF7F9FFAE4668
:1005900005006946534620F00700854618B020B58F
:1005A000FFF7D0FEBDE820404FF000064FF00007F7
:1005B0004FF000084FF0000B21F00701AC46ACE80B
:1005C000C009ACE8C009ACE8C009ACE8C0098D4678
:1005D000704710B50446AFF300802046BDE81040D8
:1005E000FFF73BBE01491820ABBEFEE72600020024
:1005F0007047F0B581B04FF68311C3F6226108F061
:1006000027F94FF07A5108F080F8044608F0D4F842
:10061000054620460021002708F0A3F8002818BF4F
:10062000013D284608F0D6F80146204608F069F951
:100630004FF0884108F00CF9054608F0C4F804466C
:1006400028464FF0444108F060F80646B7EB542FB7
:100650000CBF2E460024204608F0C3F80146304661
:1006600008F04FF905464FF07E50294608F049F949
:1006700048F61027C0F6000757F8241008F0E8F8ED
:10068000064607EB84004168284608F0E1F8014679
:10069000304608F03AF801B0F0BDF0B581B04FF641
:1006A0008311C3F6226108F0D3F8044608F084F8F9
:1006B000054620460021002708F053F8002818BFFF
:1006C000013D284608F086F80146204608F019F951
:1006D0004FF0884108F0BCF8054608F074F804466D
:1006E00028464FF0444108F010F80646B7EB542F67
:1006F0000CBF2E460024204608F073F80146304611
:1007000008F0FFF805464FF07E50294608F0F9F84A
:1007100048F61027C0F6000757F8241008F098F89C
:10072000064607EB84004168284608F091F8014628
:10073000304607F0EAFF01B0F0BD10B52DED028B99
:10074000B0EE408AB0EE480A04F0F0FCBDEC028B3B
:1007500010BD10B52DED028BB0EE408AF0EE608A30
:10076000F0EE680AB0EE480A04F076FDBDEC028BAC
:1007700010BD10B52DED028BB0EE408AB0EE480AE8
:10078000FFF737FFBDEC028B10BDF0EE400AF5EE2F
:10079000C00AF1EE10FA02DDB0EE600A7047B1EE69
:1007A000600AFBE718B19FED020A80ED000A70476E
:1007B0000000000018B1B3EE060A80ED000A704791
:1007C00070B52DED0C8B84B006460C4615469FED9A
:1007D000990AF0EE408A9FED970AB0EE409A9FED9D
:1007E000950AF0EE40BA9FED930AF0EE409A9FED25
:1007F000910AB0EE40AA0EB104B11DB904B0BDEC2F
:100800000C8B70BD8C48FFF7CDFF8C48FFF7D2FFF3
:100810008A48D0ED000A9FED8A1A60EE810AB0EE98
:10082000600A00F02DF9F0EE408A28EEA80AF0EEFA
:10083000408A8248D0ED000AB0EE001A60EE810ACC
:100840009FED7F1A60EE810AB0EE600A00F018F9A1
:10085000B0EE409A29EE090AB0EE409ADFED790A2F
:10086000B7EE000A00EEA80ADFED770A00EEC90A2B
:10087000DFED760A20EE200A754880ED000A6E480A
:1008800090ED000ADFED730A80EE201AB7EE000A41
:1008900031EE000A20EE000A6D48D0ED000A80EE2D
:1008A000801A6D4880ED001A94ED000AB5EEC00A7A
:1008B000F1EE10FA0DD194ED010AB5EEC00AF1EE99
:1008C00010FA06D194ED020AB5EEC00AF1EE10FA64
:1008D00046D09FED580AB0EE408A00200190029069
:1008E0000390D4ED000A60EEA00A94ED011AD4ED55
:1008F000011A41EE210A94ED021AD4ED021A41EEDA
:10090000210AB0EE600A00F0A9F8B0EE408A94ED3A
:10091000000A20EE080A8DED010A94ED010A20EE8E
:10092000080A8DED020A94ED020A20EE080A8DED08
:10093000030ADDED010AF1EE600AB0EE600AFFF78E
:10094000FCFEF0EE409A9DED031AF0EE410A9DED9B
:10095000021AB0EE410AFFF7FCFEB0EE40AA07E033
:100960009FED340AF0EE409A9FED320AB0EE40AAB5
:1009700095ED000AB5EEC00AF1EE10FA0DD195ED35
:10098000010AB5EEC00AF1EE10FA06D195ED020AA1
:10099000B5EEC00AF1EE10FA3CD0B0EE690A00F0F4
:1009A0006FF8B0EE408AB0EE690AFFF7E2FEB0EEF3
:1009B00040DAB0EE4A0A00F063F8F0EE40AAB0EE7A
:1009C0004A0AFFF7D6FEB0EE40BA28EE2A0AD5ED65
:1009D000010A20EE200AD5ED000A0DEE200A68EE8D
:1009E0000B0A95ED021A00EE810AB0EE40CA95EDB1
:1009F000010A20EE0B0AD5ED020A0AEEE00AF0EE3B
:100A000040CAF0EE6C0AB0EE4C0AFFF7A2FEF0EE20
:100A100040BA03E09FED070AF0EE40BAB0EE4A1A82
:100A2000F0EE690AB0EE6B0A304604F04DFF00BFED
:100A3000E4E6000000000000EC060020F0060020C4
:100A400035FA8E3CC1BFAD3B9DF8C5362F7C1C41AD
:100A5000F4060020506CC24AF806002010B52DEDB7
:100A6000028BB0EE408AB0EE480A04F04BFDB7EEC0
:100A7000001AC1EE000AB0EE600ABDEC028B10BD98
:100A800010B52DED028BB0EE408AB0EE480AFFF7AC
:100A900004FEBDEC028B10BD2DE9F0412DED028B63
:100AA0009AB00546B0EE408A0E461746984600209A
:100AB0001790189019901490159016904DB146B15A
:100AC0003FB1B8F1000F04D0B5EEC08AF1EE10FAD4
:100AD00005D100201AB0BDEC028BBDE8F08196ED87
:100AE000000A8DED170A96ED010A8DED180A96EDB4
:100AF000020A8DED190A97ED000A8DED140A97EDA3
:100B0000010A8DED150A97ED020A8DED160A17AA56
:100B100014A9284604F02AFD402104A8FFF7D5FCBB
:100B200000200090019002900390002417A904A8CF
:100B300006F003FE00BF30E004A800EB041090EDC7
:100B4000000AD5ED000A20EE200A04A800EB0410EC
:100B5000D0ED010A95ED011A00EE810A04A800EB20
:100B60000410D0ED020A95ED021A00EE810A04A8E5
:100B700000EB0410D0ED030A95ED031A00EE810A94
:100B800020EE080AF0EE000A80EE201A684600EB1C
:100B9000840080ED001A601CC4B2042CCCDB00245D
:100BA00010E005EB840090ED000A684600EB84003D
:100BB000D0ED000A30EE200A05EB840080ED000A3B
:100BC000601CC4B2042CECDB284606F0E1FC0120DA
:100BD00080E7000010B501221021024801F00EFB51
:100BE00010BD00000000024010B500221021024894
:100BF00001F004FB10BD00000000024010B501220E
:100C00001146024801F0FAFA10BD0000000402404B
:100C100010B500220121024801F0F0FA10BD0000D9
:100C20000004024003200349488301208883C883CD
:100C300070470000B412002001B582B0002001907E
:100C40004FF47A70012301AA02A90090024802F031
:100C500067F89DF804000EBD7815002010B500243B
:100C600004F080FF10B144F0800402E004F0E2FEE2
:100C7000044305F07BF910B144F0400402E005F0B4
:100C8000F7F80443052005F0D9FCFFF7CBFF204619
:100C900010BD00002DE9FC4105460E461746002018
:100CA00000900190FFF7A0FF9220FFF7C5FF0622FA
:100CB0006946122000F0EAF8FFF78CFF9DF801006A
:100CC000000200B29DF8001040EA01046C48048064
:100CD0009DF80300000200B29DF8021040EA0104F2
:100CE000674844809DF80500000200B29DF804109A
:100CF00040EA010462488480FFF78AFF08226946BF
:100D0000002000F0C3F8FFF779FF9DF800000F28DE
:100D100029D19DF80300000200B29DF8021040EABC
:100D200001045748408B201A00B25549C8819DF8EC
:100D30000500000200B29DF8041040EA010450488A
:100D4000808B201A00B24E4908829DF807000002ED
:100D500000B29DF8061040EA01044948C08B201AF1
:100D600000B247494882FFF73FFFA220FFF764FF28
:100D700002226946222000F089F8FFF72BFF9DF838
:100D80000000C0009DF8011040EA6114B4F5806FC6
:100D900002DBA4F5006004B23948B0F91200002863
:100DA00003DD3748B0F9120003E03548B0F912000E
:100DB0004042142802DA00203149488200EE104AED
:100DC000F8EEC00AB4EE001AB3EE070A00EE810A8C
:100DD00087ED000A2A48B0F9000000EE100AB8EECC
:100DE000C00A2848D0ED000A20EE200A86ED000A4D
:100DF0002348B0F9020000EE100AB8EEC00A2148FC
:100E0000D0ED000A20EE200A86ED010A1C48B0F958
:100E1000040000EE100AB8EEC00A1A48D0ED000A2D
:100E200020EE200A86ED020A1548B0F90E0000EE09
:100E3000100AB8EEC00A1448D0ED000A20EE200ACD
:100E400085ED000A0E48B0F9100000EE100AB8EE69
:100E5000C00A0D48D0ED000A20EE200A85ED010AF7
:100E60000748B0F9120000EE100AB8EEC00A0648B2
:100E7000D0ED000A20EE200A85ED020ABDE8FC81D3
:100E8000B4120020340600203806002070B5064653
:100E90000C46154646F08000FFF7CEFE06E05520D2
:100EA000FFF7CAFE2070641C681EC5B2002DF6D183
:100EB00070BD70B504460D4644F08000FFF7BCFEDF
:100EC0005520FFF7B9FE287070BD70B505460C4679
:100ED0002846FFF7B1FE2046FFF7AEFE70BD10B505
:100EE00005F0ACF805F0B2F802E0642001F068F813
:100EF000FFF7B4FE0028F8D110BD00BFFEE70000E8
:100F000010B5024800F078FB10BD00002815002045
:100F100010B5024800F070FB10BD00005015002015
:100F200070B506460D46144606B970BD5748864250
:100F30001DD1574A2146286805F060FD544A703299
:100F40002146286805F05AFD514AE03221462868BA
:100F500005F054FD4F4A2146286805F04FFD4E4BE1
:100F60004E4AA2F118014E4800F04AF98BE04D4874
:100F70008642FBD1474A70322146286805F03EFD83
:100F8000494928680968884217D121784648817202
:100F90006178C172E078A17840EA012001B242484C
:100FA00081816079217940EA012001B23E48C18106
:100FB000A1794172E0793C4908723C4841893A483C
:100FC00081833B48D0F8030000EE100ADFED390AB8
:100FD00070EE200A3548408900EE100AB8EE400A4B
:100FE000F4EEC00AF1EE10FA1CDD3048408900EE44
:100FF000100AF8EE400A2E48D0F8030000EE100A5E
:1010000030EEC00ADFED2B0A30EE600ADFED2A0A6F
:1010100020EE200ABDEEC00A10EE100A01B22248EE
:10102000418302E000212048418320480089234970
:101030004989401A01B21C480183008B010A1A48F1
:10104000406901771848017E406941771648408B16
:10105000010A1548406981771348817E4069C1774C
:101060001148808B01121048406980F820100E480A
:10107000017F406980F82110114B124AA2F118013A
:10108000114800F0BDF800BF4FE7000000640040C9
:10109000040400205405002060020020B802002053
:1010A000281500200068004068020020E31100209D
:1010B0000C0200209A99993E0000C842FE110020BF
:1010C00064020020D80300205015002010B502480B
:1010D00000F0E0FD10BD00005C160020014608781D
:1010E00010381823B0FBF3F20848805CC865032A67
:1010F00005D908686FF30900001D886503E00868DA
:101100006FF309008865886D70470000D489000876
:10111000014600208A6A8B69CBB932B1012A0DD011
:10112000022A03D0032A10D10EE000BFCB6A03F0DD
:101130008073B3F1807F00D1012007E0CB6AB3F167
:10114000C07F00D1012001E000E000BF34E08B69E6
:10115000B3F5005F1AD132B1012A07D0022A03D0B9
:10116000032A11D10AE000BF01200EE0CB6A03F090
:101170008073B3F1807F00D1012006E0CB6AB3F128
:10118000C07F00D1012000E000BF15E032B1012A8C
:1011900005D0022A04D0032A0CD103E000BF00BF0F
:1011A000012008E0CB6A03F08073B3F1807F00D1A7
:1011B000012000E000BF00BF7047704710B510204D
:1011C00000F014FF10BD10B5202000F00FFF10BD7F
:1011D00072B600BFFEE710B5024692F82030012B30
:1011E00001D0022B06D11068406908431468606181
:1011F000002010BD506A40F4802050620120F8E7C2
:10120000F0B504460D461E4694F8207020688368A9
:10121000A86800B900E000BF012F01D0022F7CD1E7
:1012200003F0806030B903F0006018B903F080501B
:10123000002873D0C3F30161022905D9606A40F424
:10124000000060620120F0BD012088403060A86885
:1012500060B9B5F800C0E86840EA4C5C206800F569
:10126000C07000EB0110C0F800C00FE0D5E901C06C
:1012700040EACC00D5F80CC040EA0C00D4F800C01D
:101280000CF5C07C0CEB011CCCF80000D5F810C0AC
:10129000206800F5C07000EB0110C0F804C0287D84
:1012A00001280ED1206800F5C07000EB01104068E5
:1012B00040F4807C206800F5C07000EB0110C0F89D
:1012C00004C0D079000692F806C040EA0C4092F8BB
:1012D00005C040EA0C2C10794CEA000C206800F59F
:1012E000C07000EB0110C0F80CC0D078000692F876
:1012F00002C040EA0C4092F801C040EA0C2092F88B
:1013000000C040EA0C00D4F800C00CF5C07C0CEB27
:10131000011CCCF80800206801E016E00FE000F5A1
:10132000C07000EB0110006840F0010C206800F56F
:10133000C07000EB0110C0F800C0002083E7606AB5
:1013400040F40010606201207DE7606A40F4802074
:101350006062012077E70000F0B504460A46216884
:1013600094F82050012D01D0022D7ED1424901F583
:101370000071086840F001000860086820F47C50A3
:1013800008600868566A40EA06200860107D00F090
:101390001F06012000FA06F3C8699843C861A1F549
:1013A0000071D069C8B9D1F80C029843C1F80C0299
:1013B000908880B2968940EA064601F51070576918
:1013C00040F83760108880B2168940EA064601F579
:1013D0001070576900EBC7004660D069012819D129
:1013E000D1F80C021843C1F80C02908880B216881C
:1013F00040EA064601F51070576940F83760908959
:1014000080B2168940EA064601F51070576900EB74
:10141000C7004660906928B9D1F804029843C1F822
:10142000040204E0D1F804021843C1F80402106970
:1014300028B9D1F814029843C1F8140204E0D1F895
:1014400014021843C1F81402106A012804D1D1F81B
:101450001C021843C1F81C02D1F8000220F0010060
:10146000C1F800020020F0BDFFE7606A40F4802070
:1014700060620120F7E7000000640040704770B52B
:10148000044694F82050012D01D0022D7DD151B990
:101490002068C06800F0030080B9606A40F4001062
:1014A0006062012070BD2068006900F0030028B967
:1014B000606A40F4001060620120F3E7206800F5E4
:1014C000D87000EB0110006800F004009060906894
:1014D00040B9206800F5D87000EB01100068400D9D
:1014E000106007E0206800F5D87000EB011000687C
:1014F000C0085060206800F5D87000EB011000684B
:1015000000F00200D060206800F5D87000EB0110F8
:10151000406800F00F001061206800F5D87000EB03
:101520000110406800F47F40000A9061206800F5D7
:10153000D87000EB01104068000C5061206800F585
:10154000D87000EB011080681870206800F5D87022
:1015500000EB0110806800F47F40000A587020689A
:1015600000F5D87000EB0110806800F47F00000CDB
:101570009870206800F5D87000EB01108068000EAC
:10158000D870206800F5D87000E02FE000EB011063
:10159000C0681871206800F5D87000EB0110C068B1
:1015A00000F47F40000A5871206800F5D87000EB05
:1015B0000110C06800F47F00000C9871206800F5ED
:1015C000D87000EB0110C068000ED87131B92068E6
:1015D000C06840F020002668F06005E020680069DF
:1015E00040F020002668306100205BE7606A40F42C
:1015F00080206062012055E72DE9F05F0446002558
:10160000206846692068D0F80490206887682068C0
:10161000D0F80CA02068D0F810B02068D0F818805E
:1016200006F00100002855D007F00100C0B10120EC
:101630002168886007F0020018B1204600F0B9FA6E
:101640000EE007F0040010B145F4006508E007F073
:10165000080010B145F4805502E0204600F0A8FAD9
:1016600007F48070C8B14FF480702168886007F477
:10167000007018B1204600F09EFA0EE007F480607A
:1016800010B145F4005508E007F4006010B145F4CE
:10169000804502E0204600F08DFA07F48030C8B1A2
:1016A0004FF480302168886007F4003018B120467C
:1016B00000F083FA0EE007F4802010B145F40045F5
:1016C00008E007F4002010B145F4803502E0204620
:1016D00000F072FA06F0080038B10AF0100020B1EC
:1016E00045F4007510202168C86006F0040040B180
:1016F0000AF0080028B108202168C860204600F0E0
:101700000DFA06F0020038B12068C06800F003004E
:1017100010B1204600F004FA06F0400038B10BF09A
:10172000100020B145F4806510202168086106F0A2
:10173000200040B10BF0080028B1082021680861A2
:10174000204600F003FA06F0100038B12068006966
:1017500000F0030010B1204600F0F9F906F4003063
:1017600040B109F0100028B11020216848602046DF
:1017700000F0EEF906F4803040B109F0080028B11D
:10178000082021684860204600F018FA06F400405E
:1017900088B309F0040078B306F4807020B108F033
:1017A000010008B145F0010506F4007020B108F011
:1017B000020008B145F0020506F4806020B108F08F
:1017C000040008B145F0040506F40060A0B108F07B
:1017D000700088B108F07000402817D006DC10288F
:1017E0000BD020280CD0302819D10CE0502810D074
:1017F000602814D110E01DE019E045F008050FE065
:1018000045F010050CE045F0200509E045F04005E5
:1018100006E045F0800503E045F4807500E000BF78
:1018200000BF2068806920F0700021688861042072
:10183000216848602DB1606A284360622046FFF746
:101840001DFEBDE8F09F70B504460CB9012070BDC7
:1018500094F8200010B9204600F0B0F82068006825
:1018600040F001002168086000F0CEFC05460DE064
:1018700000F0CAFC401B0A2808D9606A40F4003016
:101880006062052084F820000120E0E720684068BD
:1018900000F001000028EBD02068006820F0020072
:1018A0002168086000F0B0FC05460DE000F0ACFCDB
:1018B000401B0A2808D9606A40F4003060620520A5
:1018C00084F820000120C2E72068406800F0020090
:1018D0000028EBD1207E012806D12068006840F066
:1018E00080002168086005E02068006820F0800022
:1018F00021680860607E012806D12068006840F0F9
:1019000040002168086005E02068006820F0400081
:1019100021680860A07E012806D12068006840F098
:1019200020002168086005E02068006820F02000A1
:1019300021680860E07E012806D12068006820F058
:1019400010002168086005E02068006840F0100081
:1019500021680860207F012806D12068006840F0D7
:1019600008002168086005E02068006820F0080091
:1019700021680860607F012806D12068006840F077
:1019800004002168086005E02068006820F0040079
:1019900021680860D4E902010843216908436169AC
:1019A00008436168491E08432168C86100206062DD
:1019B000012084F82000002049E7000010B586B01F
:1019C0000446142101A8FEF780FD4E492068884294
:1019D00041D14D480068401C4B49086008460068EA
:1019E00001280FD100BF002000904848006840F057
:1019F0000070464908600846006800F000700090DA
:101A000000BF00BF00BF00200090404810380068B1
:101A100040F008003D49103908600846006800F0B1
:101A20000800009000BF00BF032001900220029038
:101A300000200390032004900920059001A9344858
:101A400000F0E2FA00220521142000F0A1FC14208D
:101A500000F08EFC54E02F492068884250D100BF2E
:101A6000002000902948006840F080602749086005
:101A70000846006800F08060009000BF00BF224868
:101A80000068401C204908600846006801280FD102
:101A900000BF002000901D48006840F000701B4906
:101AA00008600846006800F00070009000BF00BFAA
:101AB00000BF0020009015481038006840F0020078
:101AC0001249103908600846006800F002000090D2
:101AD00000BF00BF60200190022002900020039010
:101AE000032004900920059001A90B4800F08CFA0E
:101AF00000220521402000F04BFC402000F038FC83
:101B000006B010BD0064004070060020403802405E
:101B1000000C0240006800400004024070470000D2
:101B200010B5044608492068086001F120030A1D29
:101B300000212046FFF7A3FC034901F120020868B9
:101B4000091DFFF7EDF910BD7012002070477047B6
:101B5000704770B5044694F82000012822D1022075
:101B600084F820002068006820F0010021680860E7
:101B700000F04AFB05460DE000F046FB401B0A283A
:101B800008D9606A40F400306062052084F82000C3
:101B9000012070BD2068406800F001000028EBD1F2
:101BA0006062F6E7606A40F4002060620120F0E7BE
:101BB000704770477047704770477047704770B5FF
:101BC0000446A56D00F020FB064694F83500022877
:101BD00008D08020606500BF002084F8340000BF7A
:101BE000012070BD2068006820F0160021680860A0
:101BF0002068406920F0800021684861206C08B9A5
:101C0000A06C28B12068006820F0080021680860F6
:101C10002068006820F001002168086010E000F0F2
:101C2000F3FA801B05280BD920206065032084F877
:101C3000350000BF002084F8340000BF0320D0E747
:101C40002068006800F001000028E8D194F85C10DA
:101C50003F208840A860012084F8350000BF0020A4
:101C600084F8340000BF00BFBBE7014691F835009F
:101C7000022803D08020486501207047052081F8A4
:101C800035000868006820F001000A681060002034
:101C9000F3E70000F8B50446002000908C48006887
:101CA0004FF41651B0FBF1F7A56D2E6894F85C1057
:101CB00008208840304098B12068006800F0040097
:101CC00070B12068006820F004002168086094F872
:101CD0005C1008208840A860606D40F001006065DD
:101CE00094F85C1001208840304068B12068406959
:101CF00000F0800040B194F85C1001208840A8609A
:101D0000606D40F00200606594F85C10042088402B
:101D1000304068B12068006800F0020040B194F8DB
:101D20005C1004208840A860606D40F0040060658D
:101D300094F85C1010208840304078B32068006828
:101D400000F0080050B394F85C1010208840A860A0
:101D50002068006800F4802080B12068006800F4EA
:101D6000002028B9206CC8B12046216C884715E0B6
:101D7000A06C98B12046A16C88470FE020680068ED
:101D800000F4807028B92068006820F008002168FD
:101D90000860206C10B12046216C884794F85C10D4
:101DA000202088403040002865D02068006800F07E
:101DB000100000285FD094F85C1020208840A860B4
:101DC00094F83500052828D12068006820F0160016
:101DD000216808602068406920F08000216848611F
:101DE000206C08B9A06C28B12068006820F00800B9
:101DF0002168086094F85C103F208840A8600120AA
:101E000084F8350000BF002084F8340000BF206D46
:101E100010B12046216D8847F8BD2068006800F4A5
:101E2000802080B12068006800F4002028B9606C30
:101E300010B12046616C88471DE0E06BD8B12046A8
:101E4000E16B884717E02068006800F4807068B98B
:101E50002068006820F0100021680860012084F8E4
:101E6000350000BF002084F8340000BFE06B10B1E3
:101E70002046E16B8847606D38B3606D00F001006B
:101E8000F0B1052084F835002068006820F00100DA
:101E90002168086000BF0098401C0090B84200D93B
:101EA00005E02068006800F001000028F3D100BFC1
:101EB000012084F8350000BF002084F8340000BF02
:101EC000E06C10B12046E16C884700BFA4E7000039
:101ED000740600202DE9F0410446002500F094F935
:101EE000074614B90120BDE8F081606A00B100BF67
:101EF000022084F8350000BF002084F8340000BFC1
:101F00002068006820F00100216808600AE000F005
:101F10007BF9C01B052805D920206065032084F8C3
:101F20003500E0E72068006800F001000028EED1ED
:101F30002068056821480540D4E901010843E168AB
:101F400008432169084361690843A1690843E169BD
:101F50000843216A08430543606A042803D1D4E991
:101F60000B0108430543206805602068456925F09A
:101F70000705606A0543606A04280DD1A06A05431D
:101F8000E06A48B12046FFF7C3F828B140206065F9
:101F9000012084F83500A6E7206845612046FFF758
:101FA0009DF8064694F85C103F208840B060002001
:101FB0006065012084F83500002094E73F8010F030
:101FC00070B5044600F020F906462546681C10B19D
:101FD00004480078054400BF00F016F9801BA842B1
:101FE000FAD370BDE80600207047000010B5044623
:101FF00004480068204020B1024804602046FFF7F2
:10200000F3FF10BD143C0140F8B502460B46002515
:10201000002400200021D6E0012606FA01F51E6802
:1020200006EA0504AC4274D11E7906F00306012EBF
:1020300004D01E7906F00306022E13D190684F00DB
:102040000326BE40B0434F00DE68BE403043906080
:10205000506801268E40B0431E79C6F300168E40AC
:10206000304350601E7906F00306032E09D0D06875
:102070004F000326BE40B0434F009E68BE40304331
:10208000D0601E7906F00306022E13D1CF0802F1AC
:10209000200656F827004E07F70E0F26BE40B04325
:1020A0004F07FF0E1E69BE403043CF0802F12006E5
:1020B00046F8270010684F000326BE40B0431E7943
:1020C00006F003064F00BE40304310605E6806F421
:1020D0004036002E76D000BF002600963C4E366873
:1020E00046F480463A4F3E603E46366806F48046E7
:1020F000009600BF00BF374E8F0856F827008E07A6
:10210000370F0F26BE40B043334EB24202D10026F5
:1021100024E057E0314EB24201D101261EE0304E9C
:10212000B24201D1022619E02E4EB24201D103265D
:1021300014E02D4EB24201D104260FE02B4EB242E4
:1021400001D105260AE02A4EB24201D1062605E059
:10215000284EB24201D1072600E008268F073F0F24
:10216000BE4030431B4E8F0846F82700224E306891
:10217000A0435E6806F4801606B120431E4E306010
:10218000361D3068A0435E6806F4001606B1204391
:10219000194E361D3060184E361F3068A0435E68F9
:1021A00006F4003606B12043134E361F3060361F4A
:1021B0003068A0435E6806F4803606B120430E4EB8
:1021C000083E3060491C1029FFF426AFF8BD00001E
:1021D0004438024008380140000002400004024038
:1021E00000080240000C02400010024000140240AF
:1021F00000180240001C0240083C01400AB1816105
:1022000001E00B04836170470148006870470000DB
:10221000E0060020034800680349097808440149A2
:1022200008607047E0060020E806002010B50D4861
:10223000006840F400700B4908600846006840F4EC
:10224000806008600846006840F4807008600320E1
:1022500000F0DCF80F2000F007F800F05FF8002035
:1022600010BD0000003C02402DE9F04188B004465A
:102270000027B84600BF002001902448006840F0C5
:102280000100224908600846006800F00100019042
:1022900000BF00BF02A903A800F08EF9069F1FB976
:1022A00000F0B2F9054602E000F0AEF9450018482A
:1022B000B5FBF0F0A0F101084FF08040154908602F
:1022C00040F2E7311348C160C0F804800021016189
:1022D0008160816100F03BFE064696B90D4800F032
:1022E00083FE06466EB91C2000F042F8102C07D27F
:1022F000002221461C2000F04BF80748046000E053
:102300000126304608B0BDE8F081000040380240A8
:1023100040420F00BC160020E406002008B500BFB4
:10232000002000901148006840F480400F49086088
:102330000846006800F48040009000BF00BF00BF66
:1023400000200090081F006840F08050091F0860BE
:102350000846006800F08050009000BF00BF0022D7
:102360000F21901E00F014F808BD00004438024010
:1023700001460846002809DB00F01F0301229A40AD
:1023800043099B0003F1E023C3F8002100BF70471D
:102390002DE9F05F80460D461646002702F0AAFEA2
:1023A000074639462A46334601F00700C0F1070ABE
:1023B000BAF1040F02D94FF0040A01E0C0F1070A94
:1023C000D14600F1040ABAF1070F02D24FF0000A19
:1023D00001E0A0F1030AD4464FF0010A0AFA09FA13
:1023E000AAF1010A0AEA020A0AFA0CFA4FF0010BF2
:1023F0000BFA0CFBABF1010B0BEA030B4AEA0B04E3
:102400002146404602F07EFEBDE8F09F00BF00F08E
:102410000702064B19684FF6FF031940044B0B43A4
:1024200043EA0221014B196000BF70470CED00E048
:102430000000FA0570B504460D460CB9012070BDC8
:102440005848006800F00700A84209D255490D70AD
:102450000846006800F00700A84201D00120EEE71E
:10246000207800F0020002281DD1207800F004003E
:10247000042805D14C48006840F4E0504A490860FF
:10248000207800F00800082805D14748006840F48B
:102490006040454908604448006820F0F000A168A9
:1024A000084341490860207800F00100A8B3606843
:1024B000012807D13C4808380068C0F34040B8B94B
:1024C0000120BCE76068022802D06068032807D1B9
:1024D000354808380068C0F3406048B90120AEE7CD
:1024E000314808380068C0F3400008B90120A6E769
:1024F0002D48006820F00300616808432A490860FD
:10250000FFF782FE064609E0FFF77EFE801B41F2E0
:102510008831884202D9032091E707E02248006809
:1025200000F00C006168B0EB810FEDD11D48006830
:1025300000F00700A84209D91A490D700846006842
:1025400000F00700A84201D0012078E7207800F0D1
:102550000400042807D11448006820F4E050E16822
:10256000084311490860207800F00800082808D1C5
:102570000D48006820F46040216940EAC1000A4922
:10258000086000F061F808490968C1F30311074ABF
:10259000515CC8400649086006480068FFF764FEC1
:1025A00000204CE7003C024008380240BC8900088B
:1025B00074060020E40600200F2202600D4A126813
:1025C00002F0030242600B4A126802F0F0028260DD
:1025D000084A126802F4E052C260064A126802F425
:1025E0006042D2080261044A126802F007020A60DF
:1025F0007047000008380240003C02400148006873
:10260000704700007406002000B5FFF7F7FF04498B
:102610000968C1F38221034A515CC84000BD000033
:1026200008380240CC89000800B5FFF7E7FF0449ED
:102630000968C1F34231034A515CC84000BD000043
:1026400008380240CC8900082DE9F0470024002515
:102650000026A1462548006800F00C0020B104289F
:1026600005D008283AD105E0DFF8849039E0DFF89A
:10267000849036E01D48001F006800F03F041B48AE
:10268000001F006800F4800078B11A481749091F3C
:102690000968C1F38811A0FB01700146224600239E
:1026A0003846FDF761FE05460EE011480F49091F47
:1026B0000968C1F38811A0FB01700146224600237E
:1026C0003846FDF751FE05460848001F0068C0F374
:1026D0000140401C4600B5FBF6F902E0DFF810901F
:1026E00000BF00BF4846BDE8F08700000838024040
:1026F0000024F400001BB700F8B504460CB9012013
:10270000F8BD207800F00100002874D0F948006876
:1027100000F00C0004280DD0F648006800F00C0012
:10272000082813D1F348001F006800F48000B0F5BA
:10273000800F0BD1EF4808380068C0F340400028F4
:1027400059D06068002856D10120D9E700BF6068E1
:10275000B0F5803F08D1E7480838006840F4803081
:10276000E449083908601EE06068B0F5A02F0DD17B
:10277000E0480838006840F48020DE4908390860E5
:102780000846006840F4803008600CE0D9480838FA
:10279000006820F48030D74908390860084600688E
:1027A00020F48020086000BF606890B1FFF72CFD26
:1027B000054606E0FFF728FD401B642801D90320E9
:1027C0009EE7CC4808380068C0F340400028F1D0AC
:1027D00011E0FFF719FD054606E0FFF715FD401B68
:1027E000642801D903208BE7C24808380068C0F389
:1027F00040400028F1D1207800F0020002285FD18B
:10280000BC48006800F00C0058B1BA48006800F0FD
:102810000C0008281CD1B748001F006800F4800095
:10282000B0B9B44808380068C0F3400020B1E0688F
:10283000012801D0012063E7AE480838006820F085
:10284000F800216940EAC100AA490839086037E068
:10285000E06800B30120A8490860FFF7D5FC0546F1
:1028600006E0FFF7D1FC401B022801D9032047E70F
:10287000A04808380068C0F340000028F1D09D4807
:102880000838006820F0F800216940EAC100994941
:102890000839086014E0002097490860FFF7B4FC8D
:1028A000054606E0FFF7B0FC401B022801D90320D3
:1028B00026E7904808380068C0F340000028F1D1AE
:1028C000207800F0080008282CD16069A8B1012008
:1028D0008A490860FFF798FC054606E0FFF794FC7C
:1028E000401B022801D903200AE782486C300068A7
:1028F000C0F340000028F1D014E000207F490860B8
:10290000FFF782FC054606E0FFF77EFC401B02282D
:1029100001D90320F4E677486C300068C0F340002A
:102920000028F1D1207800F00400042870D100279D
:1029300070483830006800F0805090B900BF002027
:1029400000906C483830006840F080506949383158
:1029500008600846006800F08050009000BF00BF8B
:1029600001276748006800F48070B0B964480068C7
:1029700040F4807062490860FFF746FC054606E0B7
:10298000FFF742FC401B022801D90320B8E65C484F
:10299000006800F480700028F2D000BFA068012811
:1029A00008D154486830006840F00100514968314E
:1029B00008601DE0A06805280DD14E486830006809
:1029C00040F004004B49683108600846006840F058
:1029D000010008600CE047486830006820F0010002
:1029E0004449683108600846006820F00400086027
:1029F00000BFA068A8B1FFF707FC054609E0FFF794
:102A000003FC401B41F28831884202D9032077E65B
:102A100026E0384868300068C0F340000028EED057
:102A200013E0FFF7F1FB054608E0FFF7EDFB401B65
:102A300041F28831884201D9032061E62D4868308F
:102A40000068C0F340000028EFD1012F07D12948CA
:102A50003830006820F0805026493831086000BFC7
:102A6000A069002845D02348006800F00C00082821
:102A70005DD0A069022845D100201F490866FFF7F4
:102A8000C3FB054606E0FFF7BFFB401B022801D948
:102A9000032035E6174808380068C0F34060002876
:102AA000F1D1D4E907010843616A40EA81110122AA
:102AB000A06AC2EB500041EA00412C20005D41EACF
:102AC00000600C49091F086001200B490866FFF7E8
:102AD0009BFB054606E0FFF797FB401B022801D948
:102AE00003200DE6034808380068C0F34060002862
:102AF000F1D049E00838024000004742800E4742CA
:102B000000700040002021490866FFF77DFB054664
:102B100006E0FFF779FB401B022801D90320EFE50F
:102B20001B480068C0F340600028F2D12CE0A06987
:102B3000012800D1E4E51648001D0668A0690128B7
:102B400020D006F48001E06981421BD106F03F01EC
:102B5000206A814216D147F6C0703040616AB0EBFE
:102B6000811F0FD106F440310122A06AC2EB500050
:102B7000B1EB004F06D106F070612C20005DB1EB87
:102B8000006F01D00120BBE50020B9E500004742FD
:102B90000038024010B504460CB9012010BD606A2F
:102BA00038B96068B0F5827F00D105E00021E161AD
:102BB00002E00021216161610021A16294F85100CD
:102BC00028B9002084F85000204600F047F8022081
:102BD00084F851002068006820F0400021680860F7
:102BE000A08800F48270218901F404410843A1897E
:102BF00001F400610843217C01F002010843217DBA
:102C000001F001010843218B01F400710843217F89
:102C100001F0380108432021095D01F080010843DB
:102C2000218D01F400510843216808600421A06946
:102C300001EA104094F8241001F0100108432168C3
:102C400048602068C06920F400602168C8610020E5
:102C50006065012084F8510000209FE710B586B020
:102C60000446142101A8FDF730FC29492068884258
:102C70004CD100BF002000902648006840F48050EE
:102C8000244908600846006800F48050009000BFA6
:102C900000BF00BF002000901E481438006840F0BC
:102CA00002001C49143908600846006800F0020060
:102CB000009000BF00BF00BF0020009008460068E1
:102CC00040F0010008600846006800F00100009034
:102CD00000BF00BF18200190022002900020039046
:102CE000032004900520059001A90B48FFF78CF9FB
:102CF0008020019002200290002003900320049085
:102D00000520059001A90548FFF77EF906B010BD22
:102D100000300140443802400004024000000240FC
:102D20002DE9FF5F0446884691461D460E9E012010
:102D300002900020019000BF94F85000012803D1B8
:102D4000022004B0BDE8F09F012084F8500000BFCD
:102D5000FFF75AFA074694F851B060680390AA4604
:102D6000BBF1010F0BD00398B0F5827F04D1A068AE
:102D700010B9BBF1040F02D002200190DBE0B8F1E2
:102D8000000F03D0B9F1000F00D015B90120019058
:102D9000D1E094F85100042802D0052084F85100B5
:102DA00000206065C4F83890E587A587C4F83080B6
:102DB000E586A586206460642068006800F0400015
:102DC000402805D02068006840F040002168086075
:102DD000E068B0F5006F4AD1606810B1BAF1010F38
:102DE00009D1206B00882168C860206B801C20639B
:102DF000E08E401EE08633E02068806800F002002C
:102E0000022810D1E08E70B1029801280BD1206BFE
:102E100000882168C860206B801C2063E08E401E03
:102E2000E086002002902068806800F0010068B110
:102E3000E08F58B12068C068A16B0880A06B801C2F
:102E4000A063E08F401EE08701200290FFF7DCF9CD
:102E5000C01BB04204D3701C10B1032001906AE083
:102E6000E08E0028C8D1E08F0028C5D14AE0606814
:102E700010B1BAF1010F09D1206B007821680873F5
:102E8000206B401C2063E08E401EE08634E020680A
:102E9000806800F00200022810D1E08E70B1029824
:102EA00001280BD1206B007821680873206B401C2F
:102EB0002063E08E401EE08600200290206880683B
:102EC00000F0010068B1E08F58B12068C068A16BC4
:102ED0000870A06B401CA063E08F401EE0870120BB
:102EE0000290FFF791F9C01BB04201D3701C00B9EA
:102EF00016B9032001901EE0E08E0028C7D1E08FB4
:102F00000028C4D13A463146204601F021FC20B1C8
:102F100001200190202060650DE0A06850B900BF3D
:102F2000002000902068C0680090206880680090B1
:102F300000BF00BF00BF012084F8510000BF002087
:102F400084F8500000BF0198FBE67047704710B549
:102F500004460CB9012010BD94F83D0028B90020AA
:102F600084F83C00204600F025F8022084F83D005B
:102F7000211D206801F034FD012084F8460000BFC7
:102F800084F83E0001213F20015540200155412099
:102F9000015500BF00BF012084F8420043200155C5
:102FA000442001554520015500BF012084F83D0013
:102FB0000020D0E708B50A4A016891420FD100BF4E
:102FC000002100910749096841F40031054A116068
:102FD0001146096801F40031009100BF00BF08BD2F
:102FE0000044014044380240014691F83D00012868
:102FF00001D001207047022081F83D000868C068B8
:1030000040F001000B68D8601A4B086898421BD04A
:103010000868B0F1804F17D0174B0868984213D05A
:10302000164B086898420FD0154B086898420BD091
:10303000144B0868984207D0134B0868984203D095
:10304000124B086898420CD10868806800F00702AB
:10305000062A0CD00868006840F001000B68186070
:1030600005E00868006840F001000B681860002067
:10307000C0E70000000001400004004000080040DC
:10308000000C0040000401400040014000180040D6
:10309000704710B5044620680069C0F34000D8B1FD
:1030A0002068C068C0F34000B0B16FF00200216832
:1030B0000861012020772068806900F0030018B1C2
:1030C0002046FFF7E5FF05E0204600F0DDF820464A
:1030D00000F091F90020207720680069C0F380009B
:1030E000D8B12068C068C0F38000B0B16FF00400B0
:1030F00021680861022020772068806900F4407010
:1031000018B12046FFF7C4FF05E0204600F0BCF8E8
:10311000204600F070F90020207720680069C0F395
:10312000C000D8B12068C068C0F3C000B0B16FF073
:10313000080021680861042020772068C06900F039
:10314000030018B12046FFF7A3FF05E0204600F07A
:103150009BF8204600F04FF9002020772068006996
:10316000C0F30010D8B12068C068C0F30010B0B13F
:103170006FF0100021680861082020772068C0697E
:1031800000F4407018B12046FFF782FF05E02046AA
:1031900000F07AF8204600F02EF900202077206811
:1031A000006900F0010058B12068C06800F001001B
:1031B00030B16FF0010021680861204600F0A2F9EB
:1031C00020680069C0F3C01058B12068C068C0F31F
:1031D000C01030B16FF08000216808612046FFF711
:1031E000B4FE20680069C0F3801058B12068C06840
:1031F000C0F3801030B16FF04000216808612046B4
:1032000000F089F920680069C0F3401058B12068C7
:10321000C068C0F3401030B16FF020002168086131
:103220002046FFF793FE10BD10B586B0044614216A
:1032300001A8FDF74AF91149206888421CD100BF56
:10324000002000900E48006840F020000C49086003
:103250000846006800F02000009000BF00BF40203A
:10326000019002200290002003900490032005901A
:1032700001A90448FEF7C8FE06B010BD0044014095
:10328000303802400014024070472DE9F0410446F6
:103290000D461646002700BF94F83C00012802D1D5
:1032A0000220BDE8F081012084F83C0000BF36B167
:1032B000042E1BD0082E31D00C2E5ED145E02946BD
:1032C000206801F00BFC2068806940F0080021684C
:1032D00088612068806920F0040021688861206886
:1032E0008069296908432168886148E02946206887
:1032F00001F02CFC2068806940F40060216888613E
:103300002068806920F48060216888612068806975
:10331000296940EA01202168886130E02946206857
:1033200001F052FC2068C06940F008002168C861C3
:103330002068C06920F004002168C8612068C06965
:10334000296908432168C86119E02946206801F00D
:1033500077FC2068C06940F400602168C86120687B
:10336000C06920F480602168C8612068C06929694B
:1033700040EA01202168C86101E0012700BF00BFC9
:1033800000BF002084F83C0000BF384689E710B534
:1033900004460CB9012010BD94F83D0028B9002066
:1033A00084F83C00204600F025F8022084F83D0017
:1033B000211D206801F014FB012084F8460000BFA5
:1033C00084F83E0001213F20015540200155412055
:1033D000015500BF00BF012084F842004320015581
:1033E000442001554520015500BF012084F83D00CF
:1033F0000020D0E77047704770B504460D4615B9F8
:1034000094F83E000BE0042D02D13F20005D06E061
:10341000082D02D14020005D01E04120005D01281F
:1034200001D0012070BD1DB9022084F83E000EE0DD
:10343000042D03D102213F20015508E0082D03D1BE
:1034400002214020015502E00221412001550122C4
:103450002946206801F030FB23492068884203D0C8
:1034600022492068884201D1012000E0002028B1D3
:103470002068406C40F40040216848641A49206884
:1034800088421BD02068B0F1804F17D018492068BF
:10349000884213D01749206888420FD01649206807
:1034A00088420BD011492068884207D01349206810
:1034B000884203D01249206888420CD12068806875
:1034C00000F00706062E0CD02068006840F00100CE
:1034D0002168086005E02068006840F0010021686C
:1034E000086000209EE70000000001400004014049
:1034F0000004004000080040000C00400040014073
:103500000018004010B504462068B0F1804F01D18A
:10351000FEF780FE10BD704770B504460D460449A5
:103520002068884202D1204601F0A8F870BD000052
:1035300000480040704700002DE9F84F044620681D
:1035400005682068C668206847694FF00009CA46C8
:1035500005F00F09B9F1000F0AD105F0200038B1CC
:1035600006F0200020B1204601F0E4FBBDE8F88F12
:10357000B9F1000F7CD007F0010018B906F4907083
:10358000002875D005F0010030B106F4807018B144
:10359000206C40F00100206405F0040030B107F019
:1035A000010018B1206C40F00200206405F0020018
:1035B00030B107F0010018B1206C40F00400206425
:1035C00005F0080048B106F0200010B907F001002E
:1035D00018B1206C40F008002064206C002846D010
:1035E00005F0200028B106F0200010B1204601F0BF
:1035F000A1FB20684069C0F3801A206C00F008002D
:1036000010B9BAF1000F2DD0204601F04DFB206813
:10361000406900F04000402820D100BF00BF216871
:10362000143151E8001F21F040002168143141E8B5
:103630000002002AF3D100BFA06B50B17548A16B06
:103640000865A06BFEF711FB88B1A06B016D884780
:103650000DE02046FFF76EFF09E009E02046FFF786
:1036600069FF04E02046FFF765FF002020647DE746
:10367000206B012876D105F01000002872D006F0EA
:1036800010000028FAD000BF0020009020680068D9
:10369000009020684068009000BF00BF206840692B
:1036A00000F0400040285ED1A06B006840681FFA1F
:1036B00080F8B8F1000F54D0A08D404551DDA4F83A
:1036C0002E80A06BC069B0F5807F43D000BF00BFE3
:1036D00021680C3151E8001F21F4807021680C3101
:1036E00041E80002002AF3D100BF00BF00BF2168FB
:1036F000143151E8001F21F001002168143141E824
:103700000002002AF3D100BF00BF00BF21681431BE
:1037100051E8001F21F040002168143141E8000207
:10372000002AF3D100BF202084F83E00002020634F
:1037300000BF00BF21680C3151E8001F21F01000CC
:1037400021680C3141E80002002AF3D100BFA06BD0
:10375000FEF735FAA08DE28D801A81B22046FFF780
:10376000DBFE03E740E0A08DE18D401A1FFA80F8F0
:10377000E08DC0B3B8F1000F35D000BF00BF2168A5
:103780000C3151E8001F21F4907021680C3141E8A0
:103790000002002AF3D100BF00BF00BF216814312E
:1037A00051E8001F21F001002168143141E80002B6
:1037B000002AF3D100BF202084F83E0000202063BF
:1037C00000BF00BF21680C3151E8001F21F010003C
:1037D00021680C3141E80002002AF3D100BF4146C4
:1037E0002046FFF799FEC1E605F0800030B106F0F3
:1037F000800018B1204601F02FFCB7E605F040002C
:1038000030B106F0400018B1204601F083FAADE671
:1038100000BFABE6954C000810B504460CB901207A
:1038200010BDA06900B100E000BF94F83D0028B9C8
:10383000002084F83C00204600F028F8242084F87A
:103840003D002068C06820F400502168C860204610
:1038500001F0ECFA2068006920F4904021680861CA
:103860002068406920F02A00216848612068C0680B
:1038700040F400502168C86000202064202084F8B3
:103880003D0084F83E000020CAE7000010B586B075
:103890000446142101A8FCF718FE3049206888422C
:1038A00059D100BF002000902D48006840F48020CE
:1038B0002B4908600846006800F48020009000BF93
:1038C00000BF00BF0020009025481038006840F07D
:1038D00004002349103908600846006800F004001D
:1038E000009000BF00BF4FF44060019002200290A2
:1038F00000200390032004900720059001A9194897
:10390000FEF782FB1848194908604FF000604860D4
:10391000002116488160C1604FF48061016100217F
:10392000416181614FF48071C161490201620021EE
:103930004162FEF7CFFA08B1FDF74AFC00BF0B4821
:10394000A063846300BF002205212720FEF720FD2D
:103950002720FEF70DFD06B010BD00000048004016
:103960004038024000080240286002405C160020F7
:103970007047704700BFFEE7014909684863704718
:10398000D015002010B586B0044618216846FCF713
:103990009CFD03F003F8C1490860002078E1012193
:1039A00025E065224243BE4B03EB820202EB81021B
:1039B00092ED000A6522424303EB82034A1E03EBA9
:1039C000820282ED000A65224243B64B03EB82027B
:1039D00002EB810292ED000A6522424303EB82036F
:1039E0004A1E03EB820282ED000A4A1CD1B264290E
:1039F000D7DBAA49096801EB800191ED000A652136
:103A00004143A74A02EB810181ED630AA3490A6899
:103A1000C11C02EB810191ED000A65214143A14ADD
:103A200002EB810181ED630A00212BE06522424314
:103A30009B4B03EB820202EB810292ED000A6A4685
:103A400002EB8002D2ED000A30EE200A6A4602EB59
:103A5000800282ED000A65224243924B03EB820210
:103A600002EB810292ED000A03AA02EB8002D2ED82
:103A7000000A30EE200A03AA02EB800282ED000A5F
:103A80004A1CD1B26429D1DB694601EB800191ED7A
:103A9000000ADFED850A80EE201A65214143804A45
:103AA00002EB810181ED641A03A901EB800191ED24
:103AB000000ADFED7D0A80EE201A65214143794A34
:103AC00002EB810181ED641A00213DE06522424351
:103AD000744B03EB820292ED640A744A02EB81029A
:103AE000D2ED000AB4EE600AF1EE10FA0AD16F4A84
:103AF00002EB810292ED000A6D4A02EB800282ED38
:103B0000000A23E065224243664B03EB820292EDFA
:103B1000640AB1EE400A654A02EB8102D2ED000A66
:103B2000B4EE600AF1EE10FA0CD1604A02EB8102A9
:103B300092ED000AB1EE400A5D4A02EB800282ED8E
:103B4000000A03E04A1CD1B23229BFDB00BF594949
:103B500001EB800191ED000A564901EB800181EDF6
:103B6000000A9FED550A5349183101EB800181EDA0
:103B7000000A9FED520A4F49243101EB800181ED8B
:103B8000000A4C490C3101EB800191ED000A4949D2
:103B9000183101EB8001D1ED000A30EE200A4549D1
:103BA0000C3101EB800181ED000A42490C3101EB3F
:103BB000800191ED000A3F49243101EB8001D1EDF4
:103BC000000A30EE200A3B490C3101EB8001D1EDB7
:103BD000000A80EE801A3749303101EB800181ED17
:103BE000001A652141432E4A02EB810191ED640ADE
:103BF000304901EB8001D1ED000A70EE600A2D49D9
:103C000001EB800191ED000A2A49303101EB80017E
:103C100091ED001A01EE200A264901EB800181EDA9
:103C2000000A2449303101EB800191ED000AF7EEE2
:103C3000000A30EEC00A1F490C3101EB8001D1EDC2
:103C4000000A20EE200A1B490C3101EB800181EDB6
:103C5000000A184901EB800191ED000A04F10C0102
:103C600001EB800181ED000A652141430D4A02EB21
:103C7000810191ED640A0E4901EB8001D1ED000A4A
:103C800030EE600A04EB800181ED000A411CC8B2ED
:103C900002287FF784AE06B010BD000000000020AF
:103CA00040080020FC0C00200000C84274000020E6
:103CB0003408002058070020BC74933C83C00A3F9E
:103CC00010B5044602F06AFE1E490860DFED1E1AB8
:103CD0009FED1E1ADFED1E0A9FED1E0A1E4800F022
:103CE00059FC1E48026817480168204602F078FF18
:103CF00004F1180204F10C0104F12400FCF760FD4A
:103D000094ED030A164880ED000A164880ED000A7B
:103D1000154880ED000A94ED040A114880ED010A6F
:103D2000104880ED010A104880ED010A94ED050A63
:103D30000B4880ED020A0B4880ED020A0A4880ED2C
:103D4000020A10BD0000002000000000CDCCCC3DD8
:103D5000000048440000FA442C0700200400002022
:103D6000280800201C0800201008002008B50020AA
:103D700000908448FFF7A4FF00BF83480068401C00
:103D80008149086003F0C9F800907E48FFF7FAFD0A
:103D90007E4802687E4801687A4802F021FF7C482C
:103DA0000068D0ED060AB0EE600A02F095FF002030
:103DB00039E0784901EB800191ED000A764901EB89
:103DC000800181ED000A754901EB800191ED000A47
:103DD000704901EB800181ED000A6E4901EB800121
:103DE00091ED000A6E49D1ED000A20EE200A6A49E1
:103DF00001EB8001D1ED000A694991ED011A00EE55
:103E0000810A60490C3101EB8001D1ED000A64495F
:103E100091ED021A00EE810A604901EB800181ED0B
:103E2000000A411CC8B20228C3DD564B18335B4A56
:103E300054499FED5C0A01F12400FCF72DFE514B23
:103E40003C331A1F111FA1F1100002F055FE564815
:103E50004C4BD3E903215B69C0E90813C2614948AF
:103E600090ED0D0ADFED510A20EE200ADFED500A39
:103E700080EE201A4C4880ED011A90ED010AD0ED39
:103E80000A0A30EE600ADFED490AB4EEE00AF1EE0C
:103E900010FA05DD808D401E00B24349888512E08E
:103EA000414890ED010AD0ED0A0A30EE600ADFEDDC
:103EB000410AB4EEE00AF1EE10FA04D2808D401C03
:103EC00000B239498885384890ED010A80ED0A0A28
:103ED00090ED010AB0F92C0000EE900AF8EEE00A2D
:103EE0009FED351A00EE810A2F4880ED020A254821
:103EF00090ED0E0ADFED2D0A20EE200ADFED2C0AF0
:103F000080EE201A284880ED001A1E4890ED0F0A16
:103F1000DFED260A20EE200ADFED250A80EE201ACA
:103F2000214880ED031A174890ED020ADFED1F0AC1
:103F300020EE200ADFED1E0A80EE201A1A4880EDDE
:103F4000051A104890ED010ADFED180A20EE200A4C
:103F5000DFED170A80EE201A134880ED041A094895
:103F600090ED000ADFED110A20EE200ADFED100AC5
:103F700080EE201A0C4880ED061A0121684602F0F6
:103F8000B9FFFAE6D0070020B401002004000020A9
:103F9000000000201C080020100800202808002035
:103FA000148900086F12833AFC0600200000344395
:103FB000DB0F4940000034C30000B44310B50F4884
:103FC0000F4908600320486000210D488160C160EE
:103FD0004FF4102101614FF400114161002101767D
:103FE0000121417681760021C17601774177FDF785
:103FF0002AFC08B1FDF7ECF810BD00000064004099
:104000002815002010B50F480F49086003204860AC
:1040100000210D488160C1604FF4102101614FF40F
:104020000011416100210176012141768176002154
:10403000C17601774177FDF706FC08B1FDF7C8F8B6
:1040400010BD0000006800405015002008B500BFFA
:10405000002000900A48006840F4001008490860F9
:104060000846006800F40010009000BF00BF002266
:1040700005210C20FEF78CF90C20FEF779F908BD1C
:104080003038024000B59DB01C22184916A8FCF734
:10409000E2F9002116A802F04AFF154908601C2227
:1040A00012491C310FA8FCF7D6F900210FA802F025
:1040B0003EFF104908601C220C49383108A8FCF763
:1040C000CAF9002108A802F032FF0B4908601C223F
:1040D0000649543101A8FCF7BEF9002101A802F0FD
:1040E00026FF064908601DB000BD00004C8900088D
:1040F0006006002064060020680600206C06002090
:1041000000B587B0142102A8FCF7DFF900BF00203A
:1041100001905148006840F002004F49086008468D
:10412000006800F00200019000BF00BF00BF002047
:1041300001900846006840F00100086008460068E9
:1041400000F00100019000BF00BF00BF00200190FF
:104150000846006840F0080008600846006800F063
:104160000800019000BF00BF00BF0020019008467A
:10417000006840F0040008600846006800F0040091
:10418000019000BF00BF00BF0020019008460068FA
:1041900040F0800008600846006800F08000019050
:1041A00000BF00BF00BF002001900846006840F03B
:1041B000200008600846006800F02000019000BF61
:1041C00000BF002289152548FEF718F800221021AB
:1041D0002348FEF713F8002201212248FEF70EF8CB
:1041E0004FF480700290012003900490059002A982
:1041F0001A48FDF709FF1020029001200390049057
:10420000059002A91648FDF7FFFE302002904FF4FA
:10421000041003900020049002A91048FDF7F4FE5A
:104220000120029003900490059002A90D48FDF72B
:10423000EBFE002205210A20FEF7AAF80A20FEF76D
:1042400097F8002205211720FEF7A2F81720FEF7A5
:104250008FF807B000BD000030380240000802406F
:10426000000002400004024010B50E480E490860EC
:104270004FF48270486000210B488160C160016189
:1042800001214161490281611021C1610021016266
:10429000416281620A21C162FEF77CFC08B1FCF731
:1042A00097FF10BD003001407815002000B587B0A1
:1042B0001C216846FCF709F9154816490860532087
:1042C000486000211348816040F2CF71C160002135
:1042D00001618161FEF73BFE08B1FCF779FF0D48F3
:1042E000FFF755F808B1FCF773FF6020009000203D
:1042F000019002900490002269460648FEF7C5FF2F
:1043000008B1FCF765FF0348FEF78EFF07B000BD5C
:1043100000440140D015002010B50A480A49086041
:104320000A484860002108488160C1600161042199
:10433000416100218161C161FFF76EFA08B1FCF7AC
:1043400047FF10BD0048004018160020A08601005D
:1043500000BFFEE72DED028B86B01822804968462B
:10436000FCF779F800240AE0C4EBC4017D4A02EBB3
:10437000011101F11C00694600F016F9641C042CBF
:10438000F2DBECE078480068401C77490860774829
:10439000807A774908707548C07A48700846806A04
:1043A00090ED040ADFED730A30EEC00A084680ED96
:1043B000010A90ED010ADFED700AB4EEE00AF1EEB9
:1043C00010FA07DD90ED010ADFED6C0A30EE600AAD
:1043D00080ED010A664890ED010ADFED690AB4EE4E
:1043E000E00AF1EE10FA07D290ED010ADFED630A60
:1043F00030EE200A80ED010A62480078012819D1C8
:104400005B4890ED010AB5EEC00AF1EE10FA02DD4C
:1044100090ED010A04E0564890ED010AB1EE400A21
:10442000F1EE040AB4EEE00AF1EE10FA02DD01202A
:104430004F4948704E484078524908704C480078BF
:1044400000287BD04A48D0ED010A9FED4F1A60EE5C
:10445000810AB0EE600AFCF720F94448B0F90E007A
:1044600000EE900AF8EEE00A20EE200AF3EE0A0AC7
:1044700020EE208A3E48D0ED010A9FED431A60EEFF
:10448000810AB0EE600AFCF7B4F83848B0F90C00C5
:1044900000EE900AF8EEE00A20EE200AF3EE0A0A97
:1044A00000EE208A324880ED028AD0ED010A9FEDAD
:1044B000361A60EE810AB0EE600AFCF79AF82B48D3
:1044C000B0F90E0000EE900AF8EEE00A20EE200AA5
:1044D000F3EE0A0A20EE208A2548D0ED010A9FED6E
:1044E0002A1A60EE810AB0EE600AFCF7D6F81F487F
:1044F000B0F90C0000EE900AF8EEE00A20EE200A77
:10450000F3EE0A0A00EE608A194880ED038A01463C
:10451000487801F069FF164880ED040AD0ED041ACE
:10452000B0EE611AD0ED031AF0EE610AD0ED021A76
:10453000B0EE610A02F050FC0EE0FFE7002009E057
:104540009FED120AC0EBC001064A02EB011181ED9A
:10455000150A401C0428F3DB012003F06BFA11E775
:104560002089000804040020EC01002068020020DB
:10457000C001002000003642000034430000B44374
:10458000000034C304020020A79D903C00000000FE
:1045900000BFFEE780ED060AC0ED000A80ED011ABB
:1045A000C0ED021A7047000070B504460D4604487D
:1045B00060640448206429462046226C904770BD00
:1045C000C9450008094600089FED0E0A80ED020A61
:1045D0009FED0C0A80ED030A9FED0A0A80ED040AA4
:1045E0009FED080A80ED050A9FED060A80ED060A98
:1045F0009FED040A80ED070A9FED020A80ED080A8C
:10460000704700000000000070B504460D4605B973
:1046100070BD2046616C884795ED000A84ED0C0A58
:1046200095ED010A84ED0D0A95ED020A84ED0E0A5E
:1046300095ED030A84ED090A95ED040A84ED0A0A52
:1046400095ED050A84ED0B0A0020A08700213E208D
:1046500001559FED090A84ED050A9FED070A84EDD7
:10466000060A9FED050A84ED070A9FED030A84ED13
:10467000080A00BFCCE700000000000010B50446A7
:1046800001202063A06B0068006800F4002058BB84
:10469000A06B0068006820F00100A16B0968086049
:1046A000A06B00684068C0F12400264908802420DF
:1046B000A16B09684860A06B0068006840F40020A6
:1046C000A16B09680860A06B0068006840F00100F9
:1046D000A16B096808601B480088122830D11A496C
:1046E0001A4802F097FF2BE0A06B0068006820F0EA
:1046F0000100A16B09680860A06B00684068C0F108
:104700002400104908802420A16B09684860A06B30
:104710000068006820F40020A16B09680860A06BA5
:104720000068006840F00100A16B09680860054856
:104730000088122804D104490448243002F06AFF9A
:1047400010BD00001C0200200E12002026120020C6
:104750007CB504460D461646164800681821B0FB85
:10476000F1F01549B0FBF1F04FF47A714843019034
:104770006068B0F5827F0DD12B4600228021204653
:10478000009600F01BF898B1606D40F02000606565
:1047900003207CBD00BF019800B908E00198401ECD
:1047A000019020688068C0F3C0100028F3D100BFDA
:1047B0000020EEE77406002040420F002DE9F84F7C
:1047C00004460D4690461E46DDF82890FDF71CFD78
:1047D000A0EB0900371AFDF717FD82462C48006848
:1047E000C0F3CB307843009045E0701C002842D0E5
:1047F000FDF70AFDA0EB0A00B84200D2A7BB206873
:10480000406820F0E000216848606068B0F5827F71
:104810000DD1A068B0F5004F03D0A068B0F5806F4F
:1048200005D12068006820F0400021680860A06A77
:10483000B0F5005F0DD100BF2068006820F4005083
:10484000216808602068006840F400502168086012
:1048500000BF012084F8510000BF002084F8500000
:1048600000BF0320BDE8F88FFFE7009800B90027DC
:104870000098401E0090206880682840A84201D11E
:10488000012000E000204045AFD10020EAE7000011
:104890007406002008B50020009015E002F03DFBF2
:1048A00000900A48407A28B9012211020848FDF711
:1048B000A5FC05E000224FF480710548FDF79EFC41
:1048C0000221684602F016FBE8E7000068020020BB
:1048D0000008024010B500BF502080F31188BFF3DC
:1048E0004F8FBFF36F8F00BF03F036FB18B14FF04F
:1048F00080500449086000BF002080F3118800BF89
:1049000010BD000004ED00E000B593B0302107A811
:10491000FBF7DBFD142102A8FBF7D7FD00BF002049
:1049200001902448006840F0805022490860084601
:10493000006800F08050019000BF00BF00BF002061
:1049400001901D48006840F480401B4908600846FB
:10495000006800F48040019000BF00BF0120079074
:104960000004089002200D9041050E9106210F9140
:10497000A8211091022111910421129107A8FDF79D
:10498000BBFE08B1FCF724FC0F200290022003902C
:10499000002004904FF4A05005904FF480500690F2
:1049A000052102A8FDF746FD08B1FCF711FC13B084
:1049B00000BD00004038024000700040034800681D
:1049C00040F47000014908607047000088ED00E085
:1049D00010B50248FEF75DFB10BD0000BC160020BC
:1049E00010B50268294B98420ED0B0F1804F0BD021
:1049F000274B984208D0274B984205D0264B984227
:104A000002D0264B984203D122F070024B681A4321
:104A10001E4B984220D0B0F1804F1DD01C4B9842C5
:104A20001AD01C4B984217D01B4B984214D01B4BEA
:104A3000984211D01A4B98420ED01A4B98420BD084
:104A4000194B984208D0194B984205D0184B984200
:104A500002D0184B984203D122F44072CB681A431B
:104A600022F080034C6943EA040202608B68C3624F
:104A70000B688362054B984202D0084B984201D1E3
:104A80000B6903630123436110BD00000000014076
:104A90000004004000080040000C004000040140F9
:104AA000004001400044014000480140001800401F
:104AB000001C00400020004030B501F01F0501241B
:104AC00004FA05F3046A9C430462046A01F01F05BA
:104AD00002FA05F52C43046230BD000030B5056ACA
:104AE00025F001050562026A4368846924F07004B8
:104AF00024F003040D682C4322F002028D682A433F
:104B0000104DA84200D103E00F4DA84206D100BFCE
:104B100022F00802CD682A4322F00402094DA8427F
:104B200002D0094DA84207D123F4807323F4007307
:104B30004D692B438D692B43436084614D68456308
:104B4000026230BD000001400004014030B5056A3A
:104B500025F010050562026A4368846924F4E04484
:104B600024F440740D6844EA052422F020028D6884
:104B700042EA0512124DA84200D103E0114DA842AD
:104B800007D100BF22F08002CD6842EA051222F070
:104B900040020B4DA84202D00A4DA84209D123F48D
:104BA000806323F400634D6943EA85038D6943EA1A
:104BB0008503436084614D688563026230BD0000F7
:104BC000000001400004014030B5056A25F48075FD
:104BD0000562026A4368C46924F0700424F0030487
:104BE0000D682C4322F400728D6842EA0522124DB2
:104BF000A84200D103E0114DA84207D100BF22F422
:104C00000062CD6842EA052222F480620A4DA84281
:104C100002D00A4DA84209D123F4805323F4005353
:104C20004D6943EA05138D6943EA05134360C46186
:104C30004D68C563026230BD0000014000040140C0
:104C400030B5056A25F480550562036A4468C26977
:104C500022F4E04222F440720D6842EA052223F475
:104C600000538D6843EA0533084DA84202D0084D31
:104C7000A84204D124F480444D6944EA8514446078
:104C8000C2614D680564036230BD00000000014050
:104C90000004014070B50546AC6B0020E085E0845F
:104CA0002046FEF747FC70BD00BF00BF02680C3213
:104CB00052E8002F22F4907102680C3242E800138F
:104CC000002BF3D100BF00BF00BF0268143252E8CE
:104CD000002F22F001010268143242E80013002B79
:104CE000F3D100BF016B01290ED100BF00BF0268E4
:104CF0000C3252E8002F22F0100102680C3242E818
:104D00000013002BF3D100BF202180F83E100021BA
:104D10000163704710B504462068C06820F0400069
:104D20002168C860202084F83D002046FEF721FE5F
:104D3000002010BDF8B5044694F83E00222873D137
:104D4000A068B0F5805F0CD1206950B90025A66A33
:104D500020684068C0F308003080A06A801CA06210
:104D600015E0A56A0026A068B0F5805F03D0A068B2
:104D700028B9206918B920684068287004E02068C4
:104D8000406800F07F002870A06A401CA062E08D9F
:104D9000401E80B2E085002844D12068C06820F021
:104DA00020002168C8602068C06820F480702168F5
:104DB000C8602068406920F0010021684861202017
:104DC00084F83E00206B012826D10020206300BF1C
:104DD00000BF21680C3151E8001F21F0100021684C
:104DE0000C3141E80002002AF3D100BF20680068BE
:104DF00000F0100010280AD100BF002000902068A9
:104E00000068009020684068009000BF00BFA18D3E
:104E10002046FEF781FB02E02046FEF7A9FD0020B8
:104E2000F8BD01E00020FBE70220F9E72DE9F84F8B
:104E300004462068006920F44050E1680843216876
:104E400008612169A068084361690843E169084372
:104E500000902068C06849F20C61884300990843BB
:104E60002168C8602068406920F44070A169084347
:104E70002168486176492068884203D075492068D6
:104E8000884203D1FDF7D0FB814602E0FDF7BCFB71
:104E90008146E069B0F5004F6CD102206168A0FB4B
:104EA000015003461920A9FB007001462A463846E6
:104EB000FBF75AFA6421B0FBF1F04FEA001A022026
:104EC0006168A0FB01510B461920A9FB00712A461D
:104ED0003846FBF749FA834602206168A0FB01507F
:104EE00003461920A9FB00712A463846FBF73CFA15
:104EF0006421B0FBF1F000EBC00101EB0010ABEB63
:104F00008000322101EBC0006421B0FBF1F000F021
:104F1000F8000AEB400A02206168A0FB015003463A
:104F20001920A9FB007001462A463846FBF71CFAF7
:104F3000834602206168A0FB015003461920A9FBAB
:104F400000712A463846FBF70FFA6421B0FBF1F0F6
:104F500000EBC00101EB0010ABEB8000322101EB54
:104F6000C0006421B0FBF1F000F00700504421685C
:104F700088606AE004206168A0FB015003461920A4
:104F8000A9FB007001462A463846FBF7EDF9824638
:104F900004206168A0FB015003461920A9FB0070A2
:104FA00001462A463846FBF7DFF96421B0FBF1F0F1
:104FB00000EBC00101EB0010AAEB8000322101EBF5
:104FC00000106421B0FBF1F000F0F00A04206168E9
:104FD000A0FB017003461920A9FB00513A46284660
:104FE000FBF7C2F96421B0FBF1F00AEB001A0420D0
:104FF0006168A0FB01510B461920A9FB00712A46EC
:105000003846FBF7B1F9834604206168A0FB0150E4
:1050100003461920A9FB007001462A463846FBF7D3
:10502000A3F96421B0FBF1F000EBC00101EB00102B
:10503000ABEB8000322101EB00106421B0FBF1F0FA
:1050400000F00F00504421688860BDE8F88F000030
:105050000010014000140140014691F83D00212854
:1050600028D18868B0F5805F0BD1086948B90A6A11
:105070001088C0F308000B685860086A801C08623A
:1050800005E00B6A581C086218780B685860C88CD9
:10509000401E80B2C88458B90868C06820F08000FB
:1050A0000B68D8600868C06840F040000B68D860A2
:1050B000002070470220FCE710B50248FEF73CFADA
:1050C00010BD00001816002000BFFEE741000802D6
:1050D00018BF04200A0E18BF40F001004FF07F42B5
:1050E00032EA010108BF40F00200012808BF052094
:1050F0007047000002480068C0F3022070470000BB
:105100000CED00E010B5002804DB0A07130E054A79
:10511000135406E00A07140E034A00F00F031B1F86
:10512000D45410BD00E400E018ED00E010B54FF0DD
:105130000E402DED028BB0EE408A18EE104A00EBC7
:105140004400B0F1506F4AD84FF0FC40B0EB440F30
:1051500022D2B0EEC80AF7EE000A30EEC00AF6EE30
:10516000000A60EE208A18EE900A02F0BFFA01EE03
:10517000100A14F0004F1DBFDFED2D0A9FED2D0A20
:10518000B1EE411ADFED2C0A08BF9FED2C0AF8EEB4
:10519000001A21EE218A05E0DFED290A68EE088A6F
:1051A000B0EE600A9FED271ADFED271A30EE080AED
:1051B00048EE811A9FED251A08EEA11ADFED241A98
:1051C00048EE811A9FED231A08EEA11A68EE281AFC
:1051D000BDEC028B01EE810A30EE200A10BD4FF0CB
:1051E000E440B0EB440F0CD918EE100AFFF76EFF45
:1051F000042808BF00F0B2F9B0EE480ABDEC028BFB
:1052000010BD4FF07F40B0EB440F07D2B0EE480A1C
:10521000BDEC028BBDE8104000F091B90120FBF716
:1052200083F9BDEC028BBDE8104000F08FB900009F
:105230000000C9BF22AAFDB90000C93F22AAFD395A
:105240000000000024FE1C3DC78AD83C1E67383D84
:105250001B93993DAFAA2A3E70B54FF068422DEDE1
:10526000048BF0EE408A18EE900AB0EE608A18EED9
:10527000101A02EB4003B3F1654F3CBF02EB410251
:10528000B2F1654F7DD200BFC0F3C753C1F3C7521F
:105290009A1A1B2A09DD10F0004F14BF9FED830AF4
:1052A0009FED830ABDEC048B70BD12F11A0F36DA44
:1052B00011F0004F09D010F0004F0CBF9FED7D0A98
:1052C0009FED7D0ABDEC048B70BD88EE889A19EEC7
:1052D000100AFFF7FBFE042808BF00F03FF918EEA4
:1052E000900AFFF7F3FE054618EE100AFFF7EEFEF0
:1052F000044619EE100AFFF7E9FE042D18BF052D2C
:1053000008D1042C18BF052C04D1002804BF0220AA
:10531000FBF70AF9B0EE490ABDEC048B70BD420000
:10532000B2EB410F3AD910F0004F19BFDFED630A1D
:105330009FED630ADFED630A9FED630AB0EE481A42
:105340000A46B1EE688A80F00041F0EE418A1046CC
:105350000A1A5200B2F1807F34D2484010F0004F58
:10536000DFED5A1A9FED5A2A1DBFBEEE001A70EEED
:10537000E10A30EE420AB6EE001A08BF70EEA10A4A
:1053800000E040E008BF30EE020AB0EE682A01EE0D
:10539000482A08EE818AC2EE081A15E011F0004F83
:1053A00004BF9FED4C0AF0EE400AD1D010F0004F40
:1053B00019BFDFED490A9FED490ADFED490A9FED6C
:1053C000490AC5E7C8EE881A21EEA11A9FED462AC0
:1053D000DFED462A41EE022A9FED452A01EE222A00
:1053E000DFED442A41EE022A9FED432ABDEC048BF7
:1053F00001EE222A21EE811A01EE020A30EE210A84
:1054000030EE200A70BD4FF07F42B2EB400F28BF54
:10541000B2EB410F09D2F0EE480AB0EE680ABDECDB
:10542000048BBDE8704000F08DB840EA01035B00DA
:1054300008BF41F0FF410BD0B2EB400F08BFB2EB09
:10544000410F08D120F0804008EE900A21F0804101
:1054500008EE101A18E7B2EB400F12BF5FEA4103E3
:1054600040F0FF4001F000413FF40EAFB2EB410FBE
:1054700012BF5FEA400200F0004041F0FF413FF4FC
:1054800003AF4A0092EA40033FF5FEAE002AACBFEC
:105490009FED1A0A9FED1A0A68EE808A28EE008AAC
:1054A00018EE900A18EE101AEEE60000DB0FC9BFE6
:1054B000DB0FC93FDB0F4940DB0F49C00000C9BF0C
:1054C00022AAFDB90000C93F22AAFD390060ED3EC5
:1054D000C30ACE3700000000000049C022AA7DBAEE
:1054E0000000494022AA7D3A2DAD65BD8FB8D53D5B
:1054F0000FB511BE61C84C3EA8AAAABE0000804FDD
:105500000000802F10B52DED028BB1EEC08A18EE91
:10551000100A20F00040C0F1FF40C00F0AD010EE8A
:10552000100A20F00040C0F1FF40C00F04BF01206E
:10553000FAF7FAFFB0EE480ABDEC028B10BD30EE70
:10554000000A704730EE200A70470000DFED020AC3
:1055500080EEA00A70470000000000009FED020AE4
:1055600020EE000A704700000000001070B52DED1D
:10557000028B8AB005460C4616460DB104B11EB921
:105580000AB0BDEC028B70BD94ED000AB5EEC00A06
:10559000F1EE10FA0DD194ED010AB5EEC00AF1EE6C
:1055A00010FA06D194ED020AB5EEC00AF1EE10FA37
:1055B0007DD09FED600AB0EE408A002007900890F1
:1055C00009900490059006905B4A07CA01AB07C397
:1055D00095ED010AD5ED030A20EE200AD5ED000A6B
:1055E00095ED021A00EEC10AF0EE000A20EE200A44
:1055F0008DED070A95ED000AD5ED010A20EE200A8F
:10560000D5ED020A95ED031A00EE810AF0EE000ACC
:1056100020EE200A8DED080A95ED000A20EE000A22
:10562000D5ED030A95ED031A00EE810AF7EE000AA4
:10563000B0EE001A51EE000ACDED090A01AB224688
:105640003146284600F07AF8D4ED000A60EEA00A50
:1056500094ED011AD4ED011A41EE210A94ED021ADB
:10566000D4ED021A41EE210AB0EE600AFBF7F6F91A
:10567000B0EE408A94ED000A20EE080A84ED000A9C
:1056800094ED010A20EE080A84ED010A94ED020A65
:1056900020EE080A84ED020A94ED010ADDED090A04
:1056A00020EE200AD4ED020A9DED081A00E03EE04B
:1056B00000EEC10A8DED040A94ED020ADDED070A41
:1056C00020EE200AD4ED000A9DED091A00EEC10A71
:1056D0008DED050A94ED000ADDED080A20EE200AA2
:1056E000D4ED010A9DED071A00EEC10A8DED060A00
:1056F00096ED000ADDED010A9DED041A00EE810A27
:1057000086ED000A96ED010ADDED020A9DED051A0F
:1057100000EE810A86ED010A96ED020ADDED030A2C
:105720009DED061A00EE810A86ED020A00BF00BF59
:1057300026E7000000000000DC8900082DE9F041A8
:105740002DED048B07460D4614461E469FED580A64
:10575000B0EE409A9FED560AB0EE408A9FED540A93
:10576000F0EE408AD4ED000A60EEA00A94ED011A32
:10577000D4ED011A41EE210A94ED021AD4ED021A79
:1057800041EE210AB0EE600AFBF768F9F7EE000A75
:1057900080EE801AB0EE419AD5ED000AB0EE600AB4
:1057A000FAF7F3FFF0EE409AD5ED010AB0EE600A89
:1057B000FAF7EBFF79EE809AD5ED020AB0EE600AB7
:1057C000FAF7E3FF39EE800AF0EE408A3948D0ED6F
:1057D000000A79EE600AB0EE600AFAF7D6FFB0EE82
:1057E000408A9FED350AB4EEC08AF1EE10FA06DC6D
:1057F0009FED320AF4EEC08AF1EE10FA53DD9FED10
:105800002C2AB0EE420A9FED2A2AF0EE421AB7EE99
:10581000002AF0EE420A9FED262AB0EE421AB5EEBB
:10582000C08AF1EE10FA05DD9FED232AC2EE082AA8
:10583000B0EE620A9FED222AB4EEC20AF1EE10FA2F
:1058400003D29FED1B2AB0EE420AF5EEC08AF1EEBC
:1058500010FA05DD9FED192AC2EE282AF0EE621A31
:10586000B7EE002AB4EEC20AF1EE10FA03D220EE2F
:10587000802AF0EE420AB7EE002AF4EEC21AF1EEE8
:1058800010FA03D220EEA12AF0EE420A9FED0D2A73
:1058900020EE822AB0EE421A86ED001A86ED011A39
:1058A00086ED021A00BFBDEC048BBDE8F08100005C
:1058B00000000000F8060020CDCCCC3D8FC2F53DA5
:1058C0009A99993ECDCC4C3E10B52DED048B86B007
:1058D0000446B0EE408AF0EE608AB0EE419A0020B5
:1058E000039004900590009001900290B0EE000AA1
:1058F000C8EE000AF0EE609AB0EE690AFAF739FFD6
:105900008DED030AB0EE000AC8EE800AF0EE609A50
:10591000B0EE690AFAF72DFF8DED040AB0EE000A29
:10592000C9EE000AF0EE609AB0EE690AFAF721FFBC
:105930008DED050AB0EE000AC8EE000AF0EE609A9E
:10594000B0EE690AFBF79CF88DED000AB0EE000A94
:10595000C8EE800AF0EE609AB0EE690AFBF790F8A4
:105960008DED010AB0EE000AC9EE000AF0EE609A71
:10597000B0EE690AFBF784F88DED020A9DED050A89
:10598000DDED040A20EE200ADDED030A20EE200AF8
:10599000DDED020A9DED011A60EE810A9DED001A0F
:1059A00000EE810A84ED000A9DED020ADDED040A95
:1059B00020EE200ADDED030A20EE200ADDED050AC7
:1059C0009DED011A60EE810A9DED001A00EEC10AFC
:1059D00084ED010A9DED050ADDED010A20EE200AA5
:1059E000DDED030A20EE200ADDED020A9DED041A2A
:1059F00060EE810A9DED001A00EE810A84ED020A34
:105A00009DED050ADDED040A20EE200ADDED000A19
:105A100020EE200ADDED020A9DED011A60EE810AFA
:105A20009DED031A00EEC10A84ED030A06B0BDEC39
:105A3000048B10BD70B500250024FBF7D5F880203D
:105A4000FBF7FAF85520FBF7F7F85520FBF7F4F8C9
:105A50000546FBF7BFF8962000F0FCFDFBF7C4F805
:105A60008020FBF7E9F85520FBF7E6F85520FBF717
:105A7000E3F80546FBF7AEF8962000F0EBFDFBF7E8
:105A8000B3F8B6217E20FBF720FAFBF7A3F85020ED
:105A900000F0D4FDFBF7A8F88020FBF7CDF85520E7
:105AA000FBF7CAF85520FBF7C7F80546FBF792F855
:105AB000962000F0CFFDFBF797F88020FBF7BCF8AD
:105AC0005520FBF7B9F85520FBF7B6F80546FBF76C
:105AD00081F8962000F0BEFD1E2D01D0012070BD82
